{
    "contractName": "Casino",
    "abi": [
        {
            "inputs": [],
            "stateMutability": "nonpayable",
            "type": "constructor"
        },
        {
            "inputs": [
                {
                    "internalType": "uint256",
                    "name": "numberSelected",
                    "type": "uint256"
                }
            ],
            "name": "bet",
            "outputs": [],
            "stateMutability": "payable",
            "type": "function"
        },
        {
            "inputs": [
                {
                    "internalType": "address",
                    "name": "player",
                    "type": "address"
                }
            ],
            "name": "checkPlayerExists",
            "outputs": [
                {
                    "internalType": "bool",
                    "name": "",
                    "type": "bool"
                }
            ],
            "stateMutability": "view",
            "type": "function"
        },
        {
            "inputs": [
                {
                    "internalType": "uint256",
                    "name": "numberWinner",
                    "type": "uint256"
                }
            ],
            "name": "distributePrizes",
            "outputs": [],
            "stateMutability": "nonpayable",
            "type": "function"
        },
        {
            "inputs": [],
            "name": "generateNumberWinner",
            "outputs": [],
            "stateMutability": "nonpayable",
            "type": "function"
        },
        {
            "inputs": [],
            "name": "getName",
            "outputs": [
                {
                    "internalType": "string",
                    "name": "",
                    "type": "string"
                }
            ],
            "stateMutability": "view",
            "type": "function"
        },
        {
            "inputs": [],
            "name": "kill",
            "outputs": [],
            "stateMutability": "nonpayable",
            "type": "function"
        },
        {
            "inputs": [],
            "name": "maxAmountOfBets",
            "outputs": [
                {
                    "internalType": "uint256",
                    "name": "",
                    "type": "uint256"
                }
            ],
            "stateMutability": "view",
            "type": "function"
        },
        {
            "inputs": [],
            "name": "minimumBet",
            "outputs": [
                {
                    "internalType": "uint256",
                    "name": "",
                    "type": "uint256"
                }
            ],
            "stateMutability": "view",
            "type": "function"
        },
        {
            "inputs": [],
            "name": "name",
            "outputs": [
                {
                    "internalType": "string",
                    "name": "",
                    "type": "string"
                }
            ],
            "stateMutability": "view",
            "type": "function"
        },
        {
            "inputs": [],
            "name": "numberOfBets",
            "outputs": [
                {
                    "internalType": "uint256",
                    "name": "",
                    "type": "uint256"
                }
            ],
            "stateMutability": "view",
            "type": "function"
        },
        {
            "inputs": [],
            "name": "owner",
            "outputs": [
                {
                    "internalType": "address payable",
                    "name": "",
                    "type": "address"
                }
            ],
            "stateMutability": "view",
            "type": "function"
        },
        {
            "inputs": [
                {
                    "internalType": "address",
                    "name": "",
                    "type": "address"
                }
            ],
            "name": "playerInfo",
            "outputs": [
                {
                    "internalType": "uint256",
                    "name": "amountBet",
                    "type": "uint256"
                },
                {
                    "internalType": "uint256",
                    "name": "numberSelected",
                    "type": "uint256"
                },
                {
                    "internalType": "bool",
                    "name": "doesExist",
                    "type": "bool"
                }
            ],
            "stateMutability": "view",
            "type": "function"
        },
        {
            "inputs": [
                {
                    "internalType": "uint256",
                    "name": "",
                    "type": "uint256"
                }
            ],
            "name": "players",
            "outputs": [
                {
                    "internalType": "address payable",
                    "name": "",
                    "type": "address"
                }
            ],
            "stateMutability": "view",
            "type": "function"
        },
        {
            "inputs": [],
            "name": "totalBet",
            "outputs": [
                {
                    "internalType": "uint256",
                    "name": "",
                    "type": "uint256"
                }
            ],
            "stateMutability": "view",
            "type": "function"
        }
    ],
    "bytecode": "6080604052600260045534801561001557600080fd5b50600080546001600160a01b0319163317905560408051808201909152600680825265436173696e6f60d01b6020909201918252610053918161005d565b50600180556100fe565b828054600181600116156101000203166002900490600052602060002090601f01602090048101928261009357600085556100d9565b82601f106100ac57805160ff19168380011785556100d9565b828001600101855582156100d9579182015b828111156100d95782518255916020019190600101906100be565b506100e59291506100e9565b5090565b5b808211156100e557600081556001016100ea565b6108218061010d6000396000f3fe6080604052600436106100dd5760003560e01c80636ca3fc3b1161007f578063c38a8afd11610059578063c38a8afd146102e6578063e08a96cd146102fb578063f71d96cb14610310578063fe5e18531461033a576100dd565b80636ca3fc3b1461026e5780637365870b146102985780638da5cb5b146102b5576100dd565b80632ca8c6d3116100bb5780632ca8c6d3146101985780634081d916146101bf57806341c0e1b5146102065780634b1146911461021b576100dd565b806306fdde03146100e25780630a50e3611461016c57806317d7de7c14610183575b600080fd5b3480156100ee57600080fd5b506100f761034f565b6040805160208082528351818301528351919283929083019185019080838360005b83811015610131578181015183820152602001610119565b50505050905090810190601f16801561015e5780820380516001836020036101000a031916815260200191505b509250505060405180910390f35b34801561017857600080fd5b506101816103dd565b005b34801561018f57600080fd5b506100f76103f0565b3480156101a457600080fd5b506101ad610486565b60408051918252519081900360200190f35b3480156101cb57600080fd5b506101f2600480360360208110156101e257600080fd5b50356001600160a01b031661048c565b604080519115158252519081900360200190f35b34801561021257600080fd5b506101816104e9565b34801561022757600080fd5b5061024e6004803603602081101561023e57600080fd5b50356001600160a01b031661050c565b604080519384526020840192909252151582820152519081900360600190f35b34801561027a57600080fd5b506101816004803603602081101561029157600080fd5b5035610530565b610181600480360360208110156102ae57600080fd5b5035610686565b3480156102c157600080fd5b506102ca61074f565b604080516001600160a01b039092168252519081900360200190f35b3480156102f257600080fd5b506101ad61075e565b34801561030757600080fd5b506101ad610764565b34801561031c57600080fd5b506102ca6004803603602081101561033357600080fd5b503561076a565b34801561034657600080fd5b506101ad610794565b6006805460408051602060026001851615610100026000190190941693909304601f810184900484028201840190925281815292918301828280156103d55780601f106103aa576101008083540402835291602001916103d5565b820191906000526020600020905b8154815290600101906020018083116103b857829003601f168201915b505050505081565b6001600a4306016103ed81610530565b50565b60068054604080516020601f600260001961010060018816150201909516949094049384018190048102820181019092528281526060939092909183018282801561047c5780601f106104515761010080835404028352916020019161047c565b820191906000526020600020905b81548152906001019060200180831161045f57829003601f168201915b5050505050905090565b60035481565b6000805b6005548110156104de57826001600160a01b0316600582815481106104b157fe5b6000918252602090912001546001600160a01b031614156104d65760019150506104e4565b600101610490565b50600090505b919050565b6000546001600160a01b031633141561050a576000546001600160a01b0316ff5b565b60076020526000908152604090208054600182015460029092015490919060ff1683565b61053861079a565b6000805b6005548110156105e25760006005828154811061055557fe5b60009182526020808320909101546001600160a01b031680835260079091526040909120600101549091508514156105ae578084846064811061059457fe5b6001600160a01b0390921660209290920201526001909201915b6001600160a01b03166000908152600760205260408120818155600180820192909255600201805460ff191690550161053c565b506105ef600560006107b9565b60006064600254816105fd57fe5b04905060005b8281101561067f57600084826064811061061957fe5b60200201516001600160a01b0316146106775783816064811061063857fe5b60200201516001600160a01b03166108fc839081150290604051600060405180830381858888f19350505050158015610675573d6000803e3d6000fd5b505b600101610603565b5050505050565b61068f3361048c565b1561069957600080fd5b600181101580156106ab5750600a8111155b6106b457600080fd5b6001543410156106c357600080fd5b3360008181526007602052604081203480825560018083018690556002928301805460ff19168217905560038054820181556005805492830181559094527f036b6384b5eca791c62761152d0c79bb0604c104a5fb6f4eb0703f3154bb3db00180546001600160a01b03191690941790935580549092019091556004549054106103ed576103ed6103dd565b6000546001600160a01b031681565b60015481565b60045481565b6005818154811061077a57600080fd5b6000918252602090912001546001600160a01b0316905081565b60025481565b60405180610c8001604052806064906020820280368337509192915050565b50805460008255906000526020600020908101906103ed91905b808211156107e757600081556001016107d3565b509056fea26469706673582212201018036dc9f7f1ceb9f3821a14dfd83dc76bf2ebc18dc15fff0c993beb60aac364736f6c63430007040033",
    "sourcePath": "/home/paul/dev/eth/eth-betting/contracts/Casino.sol",
    "compiler": {
        "name": "solc",
        "version": "0.7.4+commit.3f05b770"
    },
    "functionHashes": {
        "bet(uint256)": "7365870b",
        "checkPlayerExists(address)": "4081d916",
        "distributePrizes(uint256)": "6ca3fc3b",
        "generateNumberWinner()": "0a50e361",
        "getName()": "17d7de7c",
        "kill()": "41c0e1b5",
        "maxAmountOfBets()": "e08a96cd",
        "minimumBet()": "c38a8afd",
        "name()": "06fdde03",
        "numberOfBets()": "2ca8c6d3",
        "owner()": "8da5cb5b",
        "playerInfo(address)": "4b114691",
        "players(uint256)": "f71d96cb",
        "totalBet()": "fe5e1853"
    },
    "gasEstimates": {
        "creation": {
            "codeDepositCost": "416200",
            "executionCost": "infinite",
            "totalCost": "infinite"
        },
        "external": {
            "bet(uint256)": "infinite",
            "checkPlayerExists(address)": "infinite",
            "distributePrizes(uint256)": "infinite",
            "generateNumberWinner()": "infinite",
            "getName()": "infinite",
            "kill()": "31865",
            "maxAmountOfBets()": "1042",
            "minimumBet()": "1020",
            "name()": "infinite",
            "numberOfBets()": "1021",
            "owner()": "1104",
            "playerInfo(address)": "2897",
            "players(uint256)": "2036",
            "totalBet()": "1086"
        }
    }
}