{
    "contractName": "Casino",
    "abi": [
        {
            "inputs": [],
            "stateMutability": "nonpayable",
            "type": "constructor"
        },
        {
            "inputs": [
                {
                    "internalType": "uint256",
                    "name": "numberSelected",
                    "type": "uint256"
                }
            ],
            "name": "bet",
            "outputs": [],
            "stateMutability": "payable",
            "type": "function"
        },
        {
            "inputs": [
                {
                    "internalType": "address",
                    "name": "player",
                    "type": "address"
                }
            ],
            "name": "checkPlayerExists",
            "outputs": [
                {
                    "internalType": "bool",
                    "name": "",
                    "type": "bool"
                }
            ],
            "stateMutability": "view",
            "type": "function"
        },
        {
            "inputs": [],
            "name": "completeBettingRound",
            "outputs": [],
            "stateMutability": "nonpayable",
            "type": "function"
        },
        {
            "inputs": [
                {
                    "internalType": "uint256",
                    "name": "numberWinner",
                    "type": "uint256"
                }
            ],
            "name": "distributePrizes",
            "outputs": [],
            "stateMutability": "nonpayable",
            "type": "function"
        },
        {
            "inputs": [],
            "name": "generateNumberWinner",
            "outputs": [
                {
                    "internalType": "uint256",
                    "name": "",
                    "type": "uint256"
                }
            ],
            "stateMutability": "view",
            "type": "function"
        },
        {
            "inputs": [],
            "name": "getName",
            "outputs": [
                {
                    "internalType": "string",
                    "name": "",
                    "type": "string"
                }
            ],
            "stateMutability": "view",
            "type": "function"
        },
        {
            "inputs": [],
            "name": "getPlayers",
            "outputs": [
                {
                    "internalType": "address payable[]",
                    "name": "",
                    "type": "address[]"
                }
            ],
            "stateMutability": "view",
            "type": "function"
        },
        {
            "inputs": [],
            "name": "kill",
            "outputs": [],
            "stateMutability": "nonpayable",
            "type": "function"
        },
        {
            "inputs": [],
            "name": "maxAmountOfBets",
            "outputs": [
                {
                    "internalType": "uint256",
                    "name": "",
                    "type": "uint256"
                }
            ],
            "stateMutability": "view",
            "type": "function"
        },
        {
            "inputs": [],
            "name": "minimumBet",
            "outputs": [
                {
                    "internalType": "uint256",
                    "name": "",
                    "type": "uint256"
                }
            ],
            "stateMutability": "view",
            "type": "function"
        },
        {
            "inputs": [],
            "name": "name",
            "outputs": [
                {
                    "internalType": "string",
                    "name": "",
                    "type": "string"
                }
            ],
            "stateMutability": "view",
            "type": "function"
        },
        {
            "inputs": [],
            "name": "numberOfBets",
            "outputs": [
                {
                    "internalType": "uint256",
                    "name": "",
                    "type": "uint256"
                }
            ],
            "stateMutability": "view",
            "type": "function"
        },
        {
            "inputs": [],
            "name": "owner",
            "outputs": [
                {
                    "internalType": "address payable",
                    "name": "",
                    "type": "address"
                }
            ],
            "stateMutability": "view",
            "type": "function"
        },
        {
            "inputs": [
                {
                    "internalType": "address",
                    "name": "",
                    "type": "address"
                }
            ],
            "name": "playerInfo",
            "outputs": [
                {
                    "internalType": "uint256",
                    "name": "amountBet",
                    "type": "uint256"
                },
                {
                    "internalType": "uint256",
                    "name": "numberSelected",
                    "type": "uint256"
                },
                {
                    "internalType": "bool",
                    "name": "doesExist",
                    "type": "bool"
                }
            ],
            "stateMutability": "view",
            "type": "function"
        },
        {
            "inputs": [
                {
                    "internalType": "uint256",
                    "name": "",
                    "type": "uint256"
                }
            ],
            "name": "players",
            "outputs": [
                {
                    "internalType": "address payable",
                    "name": "",
                    "type": "address"
                }
            ],
            "stateMutability": "view",
            "type": "function"
        },
        {
            "inputs": [
                {
                    "internalType": "uint256",
                    "name": "winningNumber",
                    "type": "uint256"
                }
            ],
            "name": "setTestWinningNumber",
            "outputs": [],
            "stateMutability": "nonpayable",
            "type": "function"
        },
        {
            "inputs": [],
            "name": "totalBet",
            "outputs": [
                {
                    "internalType": "uint256",
                    "name": "",
                    "type": "uint256"
                }
            ],
            "stateMutability": "view",
            "type": "function"
        }
    ],
    "bytecode": "60806040526002600455600060065534801561001a57600080fd5b50600080546001600160a01b0319163317905560408051808201909152600680825265436173696e6f60d01b602090920191825261005a91600791610064565b5060018055610105565b828054600181600116156101000203166002900490600052602060002090601f01602090048101928261009a57600085556100e0565b82601f106100b357805160ff19168380011785556100e0565b828001600101855582156100e0579182015b828111156100e05782518255916020019190600101906100c5565b506100ec9291506100f0565b5090565b5b808211156100ec57600081556001016100f1565b610971806101146000396000f3fe6080604052600436106100fe5760003560e01c8063720185cf11610095578063c38a8afd11610064578063c38a8afd14610381578063d0f25a4314610396578063e08a96cd146103c0578063f71d96cb146103d5578063fe5e1853146103ff576100fe565b8063720185cf146102b95780637365870b146102ce5780638b5b9ccc146102eb5780638da5cb5b14610350576100fe565b80634081d916116100d15780634081d916146101de57806341c0e1b5146102255780634b1146911461023c5780636ca3fc3b1461028f576100fe565b806306fdde03146101035780630a50e3611461018d57806317d7de7c146101b45780632ca8c6d3146101c9575b600080fd5b34801561010f57600080fd5b50610118610414565b6040805160208082528351818301528351919283929083019185019080838360005b8381101561015257818101518382015260200161013a565b50505050905090810190601f16801561017f5780820380516001836020036101000a031916815260200191505b509250505060405180910390f35b34801561019957600080fd5b506101a26104a2565b60408051918252519081900360200190f35b3480156101c057600080fd5b506101186104ac565b3480156101d557600080fd5b506101a2610542565b3480156101ea57600080fd5b506102116004803603602081101561020157600080fd5b50356001600160a01b0316610548565b604080519115158252519081900360200190f35b34801561023157600080fd5b5061023a6105a5565b005b34801561024857600080fd5b5061026f6004803603602081101561025f57600080fd5b50356001600160a01b03166105c8565b604080519384526020840192909252151582820152519081900360600190f35b34801561029b57600080fd5b5061023a600480360360208110156102b257600080fd5b50356105ec565b3480156102c557600080fd5b5061023a610742565b61023a600480360360208110156102e457600080fd5b503561076d565b3480156102f757600080fd5b50610300610826565b60408051602080825283518183015283519192839290830191858101910280838360005b8381101561033c578181015183820152602001610324565b505050509050019250505060405180910390f35b34801561035c57600080fd5b50610365610887565b604080516001600160a01b039092168252519081900360200190f35b34801561038d57600080fd5b506101a2610896565b3480156103a257600080fd5b5061023a600480360360208110156103b957600080fd5b503561089c565b3480156103cc57600080fd5b506101a26108b4565b3480156103e157600080fd5b50610365600480360360208110156103f857600080fd5b50356108ba565b34801561040b57600080fd5b506101a26108e4565b6007805460408051602060026001851615610100026000190190941693909304601f8101849004840282018401909252818152929183018282801561049a5780601f1061046f5761010080835404028352916020019161049a565b820191906000526020600020905b81548152906001019060200180831161047d57829003601f168201915b505050505081565b6001600a43060190565b60078054604080516020601f60026000196101006001881615020190951694909404938401819004810282018101909252828152606093909290918301828280156105385780601f1061050d57610100808354040283529160200191610538565b820191906000526020600020905b81548152906001019060200180831161051b57829003601f168201915b5050505050905090565b60035481565b6000805b60055481101561059a57826001600160a01b03166005828154811061056d57fe5b6000918252602090912001546001600160a01b031614156105925760019150506105a0565b60010161054c565b50600090505b919050565b6000546001600160a01b03163314156105c6576000546001600160a01b0316ff5b565b60086020526000908152604090208054600182015460029092015490919060ff1683565b6105f46108ea565b6000805b60055481101561069e5760006005828154811061061157fe5b60009182526020808320909101546001600160a01b0316808352600890915260409091206001015490915085141561066a578084846064811061065057fe5b6001600160a01b0390921660209290920201526001909201915b6001600160a01b03166000908152600860205260408120818155600180820192909255600201805460ff19169055016105f8565b506106ab60056000610909565b60006064600254816106b957fe5b04905060005b8281101561073b5760008482606481106106d557fe5b60200201516001600160a01b031614610733578381606481106106f457fe5b60200201516001600160a01b03166108fc839081150290604051600060405180830381858888f19350505050158015610731573d6000803e3d6000fd5b505b6001016106bf565b5050505050565b6000546001600160a01b03163314156105c657600061075f6104a2565b905061076a816105ec565b50565b61077633610548565b1561078057600080fd5b600181101580156107925750600a8111155b61079b57600080fd5b6001543410156107aa57600080fd5b336000818152600860205260408120348082556001808301959095556002918201805460ff19168617905560038054860190556005805495860181559092527f036b6384b5eca791c62761152d0c79bb0604c104a5fb6f4eb0703f3154bb3db090930180546001600160a01b0319169092179091558154019055565b6060600580548060200260200160405190810160405280929190818152602001828054801561053857602002820191906000526020600020905b81546001600160a01b03168152600190910190602001808311610860575050505050905090565b6000546001600160a01b031681565b60015481565b6000546001600160a01b031633141561076a57600655565b60045481565b600581815481106108ca57600080fd5b6000918252602090912001546001600160a01b0316905081565b60025481565b60405180610c8001604052806064906020820280368337509192915050565b508054600082559060005260206000209081019061076a91905b808211156109375760008155600101610923565b509056fea264697066735822122044ede92fbe82fe2621abaa046e9ecf78835260899331416a3482ae99cad4bebd64736f6c63430007040033",
    "sourcePath": "/home/paul/dev/eth/eth-betting/contracts/Casino.sol",
    "compiler": {
        "name": "solc",
        "version": "0.7.4+commit.3f05b770"
    },
    "functionHashes": {
        "bet(uint256)": "7365870b",
        "checkPlayerExists(address)": "4081d916",
        "completeBettingRound()": "720185cf",
        "distributePrizes(uint256)": "6ca3fc3b",
        "generateNumberWinner()": "0a50e361",
        "getName()": "17d7de7c",
        "getPlayers()": "8b5b9ccc",
        "kill()": "41c0e1b5",
        "maxAmountOfBets()": "e08a96cd",
        "minimumBet()": "c38a8afd",
        "name()": "06fdde03",
        "numberOfBets()": "2ca8c6d3",
        "owner()": "8da5cb5b",
        "playerInfo(address)": "4b114691",
        "players(uint256)": "f71d96cb",
        "setTestWinningNumber(uint256)": "d0f25a43",
        "totalBet()": "fe5e1853"
    },
    "gasEstimates": {
        "creation": {
            "codeDepositCost": "483400",
            "executionCost": "infinite",
            "totalCost": "infinite"
        },
        "external": {
            "bet(uint256)": "infinite",
            "checkPlayerExists(address)": "infinite",
            "completeBettingRound()": "infinite",
            "distributePrizes(uint256)": "infinite",
            "generateNumberWinner()": "257",
            "getName()": "infinite",
            "getPlayers()": "infinite",
            "kill()": "31843",
            "maxAmountOfBets()": "1064",
            "minimumBet()": "1020",
            "name()": "infinite",
            "numberOfBets()": "1088",
            "owner()": "1126",
            "playerInfo(address)": "2875",
            "players(uint256)": "2058",
            "setTestWinningNumber(uint256)": "21075",
            "totalBet()": "1108"
        }
    }
}